{
    "_format": "hh-sol-artifact-1",
    "contractName": "TokenSale",
    "sourceName": "contracts/TokenSale.sol",
    "abi": [
        {
            "inputs": [
                {
                    "internalType": "contract MyToken",
                    "name": "_token",
                    "type": "address"
                },
                {
                    "internalType": "uint256",
                    "name": "_rate",
                    "type": "uint256"
                }
            ],
            "stateMutability": "nonpayable",
            "type": "constructor"
        },
        {
            "anonymous": false,
            "inputs": [
                {
                    "indexed": true,
                    "internalType": "address",
                    "name": "purchaser",
                    "type": "address"
                },
                {
                    "indexed": false,
                    "internalType": "uint256",
                    "name": "amountOfEther",
                    "type": "uint256"
                },
                {
                    "indexed": false,
                    "internalType": "uint256",
                    "name": "tokensBought",
                    "type": "uint256"
                }
            ],
            "name": "TokensPurchased",
            "type": "event"
        },
        {
            "inputs": [],
            "name": "buyTokens",
            "outputs": [],
            "stateMutability": "payable",
            "type": "function"
        },
        {
            "inputs": [],
            "name": "owner",
            "outputs": [
                {
                    "internalType": "address",
                    "name": "",
                    "type": "address"
                }
            ],
            "stateMutability": "view",
            "type": "function"
        },
        {
            "inputs": [],
            "name": "rate",
            "outputs": [
                {
                    "internalType": "uint256",
                    "name": "",
                    "type": "uint256"
                }
            ],
            "stateMutability": "view",
            "type": "function"
        },
        {
            "inputs": [],
            "name": "token",
            "outputs": [
                {
                    "internalType": "contract MyToken",
                    "name": "",
                    "type": "address"
                }
            ],
            "stateMutability": "view",
            "type": "function"
        },
        {
            "inputs": [],
            "name": "withdraw",
            "outputs": [],
            "stateMutability": "nonpayable",
            "type": "function"
        }
    ],
    "bytecode": "0x608060405234801561001057600080fd5b50604051610b26380380610b268339818101604052810190610032919061016c565b816000806101000a81548173ffffffffffffffffffffffffffffffffffffffff021916908373ffffffffffffffffffffffffffffffffffffffff1602179055508060028190555033600160006101000a81548173ffffffffffffffffffffffffffffffffffffffff021916908373ffffffffffffffffffffffffffffffffffffffff16021790555050506101ac565b600080fd5b600073ffffffffffffffffffffffffffffffffffffffff82169050919050565b60006100f1826100c6565b9050919050565b6000610103826100e6565b9050919050565b610113816100f8565b811461011e57600080fd5b50565b6000815190506101308161010a565b92915050565b6000819050919050565b61014981610136565b811461015457600080fd5b50565b60008151905061016681610140565b92915050565b60008060408385031215610183576101826100c1565b5b600061019185828601610121565b92505060206101a285828601610157565b9150509250929050565b61096b806101bb6000396000f3fe60806040526004361061004a5760003560e01c80632c4e722e1461004f5780633ccfd60b1461007a5780638da5cb5b14610091578063d0febe4c146100bc578063fc0c546a146100c6575b600080fd5b34801561005b57600080fd5b506100646100f1565b60405161007191906104c0565b60405180910390f35b34801561008657600080fd5b5061008f6100f7565b005b34801561009d57600080fd5b506100a66101f2565b6040516100b3919061051c565b60405180910390f35b6100c4610218565b005b3480156100d257600080fd5b506100db610483565b6040516100e89190610596565b60405180910390f35b60025481565b600160009054906101000a900473ffffffffffffffffffffffffffffffffffffffff1673ffffffffffffffffffffffffffffffffffffffff163373ffffffffffffffffffffffffffffffffffffffff1614610187576040517f08c379a000000000000000000000000000000000000000000000000000000000815260040161017e90610634565b60405180910390fd5b600160009054906101000a900473ffffffffffffffffffffffffffffffffffffffff1673ffffffffffffffffffffffffffffffffffffffff166108fc479081150290604051600060405180830381858888f193505050501580156101ef573d6000803e3d6000fd5b50565b600160009054906101000a900473ffffffffffffffffffffffffffffffffffffffff1681565b6000341161025b576040517f08c379a0000000000000000000000000000000000000000000000000000000008152600401610252906106c6565b60405180910390fd5b60006002543461026b9190610715565b90508060008054906101000a900473ffffffffffffffffffffffffffffffffffffffff1673ffffffffffffffffffffffffffffffffffffffff1663dd62ed3e600160009054906101000a900473ffffffffffffffffffffffffffffffffffffffff16306040518363ffffffff1660e01b81526004016102eb929190610757565b602060405180830381865afa158015610308573d6000803e3d6000fd5b505050506040513d601f19601f8201168201806040525081019061032c91906107b1565b101561036d576040517f08c379a000000000000000000000000000000000000000000000000000000000815260040161036490610850565b60405180910390fd5b60008054906101000a900473ffffffffffffffffffffffffffffffffffffffff1673ffffffffffffffffffffffffffffffffffffffff166323b872dd600160009054906101000a900473ffffffffffffffffffffffffffffffffffffffff1633846040518463ffffffff1660e01b81526004016103ec93929190610870565b6020604051808303816000875af115801561040b573d6000803e3d6000fd5b505050506040513d601f19601f8201168201806040525081019061042f91906108df565b503373ffffffffffffffffffffffffffffffffffffffff167f8fafebcaf9d154343dad25669bfa277f4fbacd7ac6b0c4fed522580e040a0f33348360405161047892919061090c565b60405180910390a250565b60008054906101000a900473ffffffffffffffffffffffffffffffffffffffff1681565b6000819050919050565b6104ba816104a7565b82525050565b60006020820190506104d560008301846104b1565b92915050565b600073ffffffffffffffffffffffffffffffffffffffff82169050919050565b6000610506826104db565b9050919050565b610516816104fb565b82525050565b6000602082019050610531600083018461050d565b92915050565b6000819050919050565b600061055c610557610552846104db565b610537565b6104db565b9050919050565b600061056e82610541565b9050919050565b600061058082610563565b9050919050565b61059081610575565b82525050565b60006020820190506105ab6000830184610587565b92915050565b600082825260208201905092915050565b7f536f6c6f20656c2070726f706965746172696f2070756564652072657469726160008201527f7220457468657200000000000000000000000000000000000000000000000000602082015250565b600061061e6027836105b1565b9150610629826105c2565b604082019050919050565b6000602082019050818103600083015261064d81610611565b9050919050565b7f446562657320656e76696172204574686572207061726120636f6d707261722060008201527f746f6b656e730000000000000000000000000000000000000000000000000000602082015250565b60006106b06026836105b1565b91506106bb82610654565b604082019050919050565b600060208201905081810360008301526106df816106a3565b9050919050565b7f4e487b7100000000000000000000000000000000000000000000000000000000600052601160045260246000fd5b6000610720826104a7565b915061072b836104a7565b9250828202610739816104a7565b915082820484148315176107505761074f6106e6565b5b5092915050565b600060408201905061076c600083018561050d565b610779602083018461050d565b9392505050565b600080fd5b61078e816104a7565b811461079957600080fd5b50565b6000815190506107ab81610785565b92915050565b6000602082840312156107c7576107c6610780565b5b60006107d58482850161079c565b91505092915050565b7f456c20636f6e747261746f206e6f207469656e65207065726d69736f2070617260008201527f61207472616e736665726972206c6f7320746f6b656e73000000000000000000602082015250565b600061083a6037836105b1565b9150610845826107de565b604082019050919050565b600060208201905081810360008301526108698161082d565b9050919050565b6000606082019050610885600083018661050d565b610892602083018561050d565b61089f60408301846104b1565b949350505050565b60008115159050919050565b6108bc816108a7565b81146108c757600080fd5b50565b6000815190506108d9816108b3565b92915050565b6000602082840312156108f5576108f4610780565b5b6000610903848285016108ca565b91505092915050565b600060408201905061092160008301856104b1565b61092e60208301846104b1565b939250505056fea26469706673582212208575b6a826a6b306669c8d1ecf8f6858be35032e9724c239c119be0d9dfd7e8d64736f6c63430008140033",
    "linkReferences": {},
    "deployedLinkReferences": {}
}